:04000000C5EF08F050
:101000000000276E010E266E040E27640AEF08F01A
:101010000CEF08F010EF08F0000E266E23EF08F03A
:101020002750020DF3500B0FD96EDA6ADECF24F091
:10103000DDCF25F024C0D9FF25C0DAFF2350E16EB3
:10104000E26ADFCFE7FF26501200276E010E266E00
:10105000040E27642EEF08F030EF08F034EF08F0AC
:10106000000E266E47EF08F02750020DF350150FC3
:10107000D96EDA6ADECF24F0DDCF25F024C0D9FFA7
:1010800025C0DAFF2350E16EE26ADFCFE7FF26508A
:101090001200266E010E256E040E266452EF08F033
:1010A00054EF08F058EF08F0000E256E68EF08F0D6
:1010B0002650020DF3500B0FD96EDA6ADECF23F003
:1010C000DDCF24F023C0D9FF24C0DAFFFF0EDF1AE2
:1010D00025501200276E010E266E040E276473EF52
:1010E00008F075EF08F079EF08F0000E266E89EF32
:1010F00008F02750020DF3500B0FD96EDA6ADECFDD
:1011000024F0DDCF25F024C0D9FF25C0DAFF23C0AD
:10111000DFFF26501200276E010E266E040E276494
:1011200094EF08F096EF08F09AEF08F0000E266EA4
:10113000AAEF08F02750020DF350150FD96EDA6AA6
:10114000DECF24F0DDCF25F024C0D9FF25C0DAFFA3
:1011500023C0DFFF26501200000E236E020E8BEC20
:1011600008F01F6E2C0E236E020E25EC08F01F6E89
:10117000AA0E236E020E6AEC08F01F6E2C0E236E70
:10118000020E01EC08F01F6E1200E40EF66E110E56
:10119000F76E000EF86E00EE01F010EE22F009007E
:1011A000F5CFEEFFE550E150FAE12C6A2B6A2A6A8E
:1011B000000EF86E0001DDEF08F0ACEC08F0020E56
:1011C00049EC08F01F6E060E296E130E286EAE0E47
:1011D000E82EFED7282EFCD7292EFAD7DFEF08F00D
:1011E00000EF00F0800F810F820F830F840F890FB3
:1011F0008A0F8B0F8C0F8D0F920F930F940F950FFB
:06120000960F01928A82A4
:020000040020DA
:08000000FFFFFFFFFFFFFFFF00
:020000040030CA
:0E000000FF02091EFF8181FF0FC00FE00F40BD
:00000001FF
